:0B09AF006C656E6774683A00636D00B1
:10054C001209941209717BFF7A0979AF7D017F0141
:10055C001208BD7BFF7A0979B77D067F021208BDB0
:10056C00120436E4FBFA792078411200031201E7F9
:10057C008E348F357C037DE81203F2EF2430F53A8C
:10058C00AE34AF357C037DE81203F2AA04AB057DD3
:10059C00647C00AF03AE021203F2EF2430F53BFF94
:1005AC003395E0FEEF24D0F537EE34FFF5367D645D
:1005BC007C00AF03AE021203F27E007F0ACFCDCFD8
:1005CC00CECCCE1203F2EF2430F53CAE36AF377CF6
:1005DC00007D0A12038BAD3CED3395E0FCED24D08D
:1005EC00FDEC34FFCD2FF537ED3EF536753D2EAED7
:1005FC0034AF357C007D0A1203F2ED2430F53EE475
:10060C00F53FFB7A00793A7D017F021208BDE53A8D
:10061C0024D0600302056CE53B24D0C3648094882D
:10062C00400302056C7F327E001208E0AE36AF3715
:0D063C007C007D1412038B12090602056C70
:10086F00003F0006005B004F0066006D007D000733
:10087F00007F006F00770000001C001800140010AC
:08088F00000C00080004000049
:040902007F147E00E0
:10090600EF1FAC0670011E4C600B007D027CC7DC3D
:09091600FEDDFC80EB7E007F0198
:01091F0022B5
:080742008E088F098C0A8D0B53
:10074A00780C7C007D007BFF7A08796F7E007F162B
:10075A0012033878227C007D007BFF7A0879857E37
:10076A00007F12120338E50925E02422F808E6F58D
:10077A00A0E50B25E0240CF808E6F5807F017E0051
:06078A00120906E4F580EF
:010790002246
:10064900E4FB7590FFC29320970E7F14FE120906F2
:100659003097FD1209027B0120960B120902309690
:10066900FD1209027B0520950B1209023095FD1236
:1006790009027B0920940B1209023094FD12090228
:100689007B0DC29220970B1209023097FD120902C5
:100699007B0220960B1209023096FD1209027B0695
:1006A90020950B1209023095FD1209027B0A20944C
:1006B9000B1209023094FD1209027B0E7590FFC2DC
:1006C9009120970B1209023097FD1209027B032032
:1006D900960B1209023096FD1209027B0720950B31
:1006E9001209023095FD1209027B0B20940B1209A5
:1006F900023094FD1209027B0F7590FFC29020977A
:100709000B1209023097FD1209027B0420960B1285
:1007190009023096FD1209027B0820950B12090285
:100729003095FD1209027B0C20940B1209023094BA
:08073900FD1209027B10AF0361
:010741002295
:0509D900007FF7DFFEC6
:0109DE0022F6
:0408E000AD07AC06AE
:1008E400E4FBFAED25E0FFEC33FEC3EB9FEA9E50F8
:0D08F4000CB2A51209D90BBB00010A80E669
:0109010022D3
:04089700AD07AC06F7
:10089B00E4FBFAED25E0FFEC33FEC3EB9FEA9E5041
:0308AB0010B2A5E3
:0708AE00007576A6D576FD6A
:0708B5000BBB00010A80E209
:0108BC002219
:06098500C2A58F80D2A77D
:08098B007F027EEFDEFEDFFCBF
:010993002241
:0A09C500C2A6120985C2A702098B21
:10092000CFCDCFCECCCE12039D7C007D0A12039D8D
:04093000ED2430FF83
:0A093400D2A6120985C2A702098BA2
:10095B00AE07BE0104ED148006BE0209ED243F4430
:06096B0080FF1209C52205
:100971007F381209C57F0C1209C57F061209C57F90
:04098100010209C5A1
:0A09CF00AC0312095BAF0402093407
:0608BD008B408A418942D4
:1008C30012095BE4FDAB40AA41A9428D8275830006
:0C08D30012035EFF60061209340D80E97C
:0108DF0022F6
:0C083C007F0AEA24FFFDE434FFFC7E008C
:080848008E728F738C748D75A4
:100850007F017E00E4FBEBC39575E5746480F8745A
:0E0860008098500AAC72AD7312038B0B80E8C7
:01086E002267
:04093E008A658B66D5
:1009420012095BAA67EAD39400400D12083CAC6519
:08095200AD661209201A80EDC8
:01095A00227A
:1007910012095BC3EA64809480400B7F2B120934F9
:1007A1008A618B62800E7F2D120934C3E49BF5624E
:1007B100E49AF561AA60EAD39400400D12083CACBA
:0907C10061AD621209201A80EDFD
:0107CA00220C
:0407CB008A6A8B6B40
:1007CF0012095BAA6CEAD3940040297F1012083EED
:1007DF00AC6AAD6BCFCDCFCECCCE12039DEF540F05
:1007EF00FEC3940AEE5004243080022437FF12090E
:0407FF00341A80D157
:0108030022D2
:040804008A6F8B70FC
:1008080012095BAA71EAD394004028EA24FFFDE4A8
:1008180034FFFC7F027E00120848AC6FAD70CFCD6C
:10082800CFCECCCE12039DEF54012430FF120934F1
:030838001A80D251
:01083B00229A
:0309BA001209BD62
:0709BD000000007F34DFFEA3
:0109C4002210
:0F099400C290D291438901E4F58CF58AC28C227E
:10043600E4F554F555FDFCD2901209BDC2903091F9
:10044600FDE4F58CF58AD28C2091FDAF8CEFFEABE6
:100456008A7A00E42BFFEA3EFEED25E02440F8A66A
:100466000608A6071209BA1209BA1209BD0DBD007F
:10047600010CED640A4C70BFE4FCFDED2401FFE4C1
:100486003CFEC3EF940AEE9400504DEF25E0244065
:10049600F8E6FA08E6FBED25E02440F8E6F58308E1
:1004A600E6F582D39BE5839A402785835685825756
:1004B600EF25E02440F8E6FA08E6FBED25E02440C7
:1004C600F8A60208A603EF25E02440F8A65608A6DB
:1004D600570FBF00010E80AA0DBD00010CED640987
:1004E6004C70987C007D02ED25E02440F8E6FE087D
:1004F600E62555F555EE3554F5540DBD00010CEDC8
:1005060064084C70E2AC54AD55E41201AEE4FBFA5B
:1005160079C0784012010C8F5B8E5A8D598C587FAA
:10052600077E427DB27C39AB5BAA5AA959A85812FC
:100536000003E4FBFAF9784012010CE4FBFA79C8EF
:050546007842120003E1
:01054B00228D
:10000300EC4D6011E8497017ED33EC3304600DE4F7
:10001300FCFFFEFD22E933E8330470F802025312B9
:10002300021E58046009E4CC2481500628500902BA
:10003300025D28400302025AC0E0EB4A7044B980D3
:1000430006D0E0FB020249EF4E701CBD8008EBFFB7
:10005300EAFEE9FD80EBE98DF0A4FEE5F00200EC99
:10006300E9CDF9EAFEEBFFEF89F0A4FCE5F0CE89D8
:10007300F0A42EFFE435F0CD89F0A42DFEE435F095
:100083008067EF4E7005BD80D780C3EF8BF0A4ACC3
:10009300F0EE8BF0A42CFCE435F0F8EF8AF0A42CFE
:1000A300E5F038FCE433CB8DF0A42CFCE5F03BF811
:1000B300EE8AF0A42CFCE5F038F8E433CF89F0A401
:1000C3002CFCE5F038CF3400CE89F0A42FFFE5F007
:1000D3003EFEE433C98DF0A42EFEE5F039CD8AF05F
:1000E300A42FFFE5F03EFEE43DFD33D0E0FB5007D7
:1000F3000BBB000F02025DEC2CFCEF33FFEE33FE73
:06010300ED33FD020235A0
:1001090002025DEC5D046005E859047003020253C4
:1001190012021E580460F6EC4860F2EC7004FDFE11
:10012900FF22C860DB2481C85009C39860025006C9
:1001390002025A9850CAF582E9294B4A7005AB82E6
:1001490002024975F0007C1A7880C3EF9BEE9AEDA4
:1001590099400DC3EF9BFFEE9AFEED99FDE842F041
:10016900DC23ACF0D0E0FFD0E0FED0E0FDAB822094
:10017900E7101BEB60BAEC2CFCEF33FFEE33FEED1E
:1001890033FD020235E803F830E705C0F075F000E9
:10019900EF2FFFEE33FEED33FD40B830E7C280AA02
:1001A90075F020800E75F010800575F0087D007ED1
:1001B900007F003392D530D503120428EC33401068
:1001C900EF33FFEE33FEED33FDEC33FCD5F0ED22DA
:0E01D900E5F0247EA2D513CC92E7CDCEFF2216
:1001E700EDD2E7CD33EC3392D524814006E4FFFE10
:1001F700FDFC22FCE4CFCECDCC24E0501174FF806F
:10020700EDC3CC13CCCD13CDCE13CECF13CF04700B
:07021700F030D5DE020428DF
:10021E00E9D2E7C933E833F892D5EDD2E7CD33EC26
:07022E0033FC5002B2D5229F
:10023500EC30E7100FBF000C0EBE00080DBD00042A
:100245000BEB6014A2D5EB13FCED92E7FD2274FFD6
:10025500FCFDFEFF22E480F8A2D574FF13FC7D802F
:03026500E480EF43
:030000000209A34F
:0C09A300787FE4F6D8FD75817602054CE3
:10026800E709F608DFFA8046E709F208DFFA803E78
:1002780088828C83E709F0A3DFFA8032E309F60865
:10028800DFFA8078E309F208DFFA807088828C83CD
:10029800E309F0A3DFFA806489828A83E0A3F60881
:1002A800DFFA805889828A83E0A3F208DFFA804C5B
:1002B80080D280FA80C680D4806980F28033801032
:1002C80080A680EA809A80A880DA80E280CA80339B
:1002D80089828A83ECFAE493A3C8C582C8CCC58313
:1002E800CCF0A3C8C582C8CCC583CCDFE9DEE780E3
:1002F8000D89828A83E493A3F608DFF9ECFAA9F062
:10030800EDFB2289828A83ECFAE0A3C8C582C8CCB7
:10031800C583CCF0A3C8C582C8CCC583CCDFEADED0
:10032800E880DB89828A83E493A3F208DFF980CC32
:1003380088F0EF60010E4E60C388F0ED2402B4042B
:100348000050B9F582EB2402B4040050AF232345D2
:0603580082239002B8733D
:10035E00BB010CE58229F582E5833AF583E0225054
:10036E0006E92582F8E622BBFE06E92582F8E2229E
:0D037E00E58229F582E5833AF583E49322B8
:10038B00EF8DF0A4A8F0CF8CF0A428CE8DF0A42E86
:02039B00FE2240
:10039D00BC000BBE0029EF8DF084FFADF022E4CC44
:1003AD00F875F008EF2FFFEE33FEEC33FCEE9DEC0D
:1003BD00984005FCEE9DFE0FD5F0E9E4CEFD22ED53
:1003CD00F8F5F0EE8420D21CFEADF075F008EF2F9D
:1003DD00FFED33FD4007985006D5F0F222C398FD8E
:0503ED000FD5F0EA222B
:1003F200C2D5EC30E709B2D5E4C39DFDE49CFCEE26
:1004020030E715B2D5E4C39FFFE49EFE12039DC3FD
:10041200E49DFDE49CFC800312039D30D507C3E4F8
:060422009FFFE49EFE2294
:0E042800C3E49FFFE49EFEE49DFDE49CFC22E5
:00000001FF
